{
  "abi": [
    {
      "inputs": [],
      "name": "TransferFailed",
      "type": "error"
    },
    {
      "inputs": [
        {
          "internalType": "address",
          "name": "",
          "type": "address"
        },
        {
          "internalType": "address",
          "name": "",
          "type": "address"
        }
      ],
      "name": "balances",
      "outputs": [
        {
          "internalType": "uint256",
          "name": "",
          "type": "uint256"
        }
      ],
      "stateMutability": "view",
      "type": "function"
    },
    {
      "inputs": [
        {
          "internalType": "uint256",
          "name": "amount",
          "type": "uint256"
        },
        {
          "internalType": "address",
          "name": "token",
          "type": "address"
        }
      ],
      "name": "stake",
      "outputs": [
        {
          "internalType": "bool",
          "name": "",
          "type": "bool"
        }
      ],
      "stateMutability": "nonpayable",
      "type": "function"
    }
  ],
  "bytecode": {
    "object": "0x608060405234801561001057600080fd5b5061025f806100206000396000f3fe608060405234801561001057600080fd5b50600436106100365760003560e01c80637acb77571461003b578063c23f001f14610063575b600080fd5b61004e610049366004610190565b610099565b60405190151581526020015b60405180910390f35b61008b6100713660046101bc565b600060208181529281526040808220909352908152205481565b60405190815260200161005a565b336000908152602081815260408083206001600160a01b03851684529091528120805484919083906100cc9084906101e6565b90915550506040516323b872dd60e01b8152336004820152306024820152604481018490526000906001600160a01b038416906323b872dd906064016020604051808303816000875af1158015610127573d6000803e3d6000fd5b505050506040513d601f19601f8201168201806040525081019061014b9190610207565b90508061016b576040516312171d8360e31b815260040160405180910390fd5b90505b92915050565b80356001600160a01b038116811461018b57600080fd5b919050565b600080604083850312156101a357600080fd5b823591506101b360208401610174565b90509250929050565b600080604083850312156101cf57600080fd5b6101d883610174565b91506101b360208401610174565b8082018082111561016e57634e487b7160e01b600052601160045260246000fd5b60006020828403121561021957600080fd5b8151801515811461016b57600080fdfea2646970667358221220031e6f9b1504b9f6fe635c69646c1351ba3749780287610a0858a64948bb283664736f6c63430008110033",
    "linkReferences": {}
  },
  "methodIdentifiers": {
    "balances(address,address)": "c23f001f",
    "stake(uint256,address)": "7acb7757"
  },
  "id": 1
}